{
  "_format": "hh-sol-artifact-1",
  "contractName": "Campaign",
  "sourceName": "contracts/Campaign.sol",
  "abi": [
    {
      "anonymous": false,
      "inputs": [
        {
          "indexed": false,
          "internalType": "uint256",
          "name": "campaignId",
          "type": "uint256"
        },
        {
          "indexed": false,
          "internalType": "string",
          "name": "title",
          "type": "string"
        },
        {
          "indexed": false,
          "internalType": "string",
          "name": "description",
          "type": "string"
        },
        {
          "indexed": false,
          "internalType": "uint256",
          "name": "amountRequired",
          "type": "uint256"
        },
        {
          "indexed": false,
          "internalType": "address",
          "name": "creator",
          "type": "address"
        }
      ],
      "name": "CampaignCreated",
      "type": "event"
    },
    {
      "anonymous": false,
      "inputs": [
        {
          "indexed": false,
          "internalType": "uint256",
          "name": "campaignId",
          "type": "uint256"
        },
        {
          "indexed": false,
          "internalType": "address",
          "name": "donor",
          "type": "address"
        },
        {
          "indexed": false,
          "internalType": "uint256",
          "name": "amount",
          "type": "uint256"
        }
      ],
      "name": "DonationReceived",
      "type": "event"
    },
    {
      "inputs": [
        {
          "internalType": "uint256",
          "name": "",
          "type": "uint256"
        }
      ],
      "name": "campaigns",
      "outputs": [
        {
          "internalType": "string",
          "name": "title",
          "type": "string"
        },
        {
          "internalType": "string",
          "name": "description",
          "type": "string"
        },
        {
          "internalType": "uint256",
          "name": "amountRequired",
          "type": "uint256"
        },
        {
          "internalType": "uint256",
          "name": "amountCollected",
          "type": "uint256"
        },
        {
          "internalType": "address payable",
          "name": "creator",
          "type": "address"
        },
        {
          "internalType": "bool",
          "name": "isActive",
          "type": "bool"
        }
      ],
      "stateMutability": "view",
      "type": "function"
    },
    {
      "inputs": [
        {
          "internalType": "string",
          "name": "_title",
          "type": "string"
        },
        {
          "internalType": "string",
          "name": "_description",
          "type": "string"
        },
        {
          "internalType": "uint256",
          "name": "_amountRequired",
          "type": "uint256"
        }
      ],
      "name": "createCampaign",
      "outputs": [],
      "stateMutability": "nonpayable",
      "type": "function"
    },
    {
      "inputs": [
        {
          "internalType": "uint256",
          "name": "_campaignId",
          "type": "uint256"
        }
      ],
      "name": "donateToCampaign",
      "outputs": [],
      "stateMutability": "payable",
      "type": "function"
    },
    {
      "inputs": [
        {
          "internalType": "uint256",
          "name": "_campaignId",
          "type": "uint256"
        }
      ],
      "name": "getCampaign",
      "outputs": [
        {
          "components": [
            {
              "internalType": "string",
              "name": "title",
              "type": "string"
            },
            {
              "internalType": "string",
              "name": "description",
              "type": "string"
            },
            {
              "internalType": "uint256",
              "name": "amountRequired",
              "type": "uint256"
            },
            {
              "internalType": "uint256",
              "name": "amountCollected",
              "type": "uint256"
            },
            {
              "internalType": "address payable",
              "name": "creator",
              "type": "address"
            },
            {
              "internalType": "bool",
              "name": "isActive",
              "type": "bool"
            }
          ],
          "internalType": "struct Campaign.CampaignDetails",
          "name": "",
          "type": "tuple"
        }
      ],
      "stateMutability": "view",
      "type": "function"
    },
    {
      "inputs": [],
      "name": "getCampaigns",
      "outputs": [
        {
          "components": [
            {
              "internalType": "string",
              "name": "title",
              "type": "string"
            },
            {
              "internalType": "string",
              "name": "description",
              "type": "string"
            },
            {
              "internalType": "uint256",
              "name": "amountRequired",
              "type": "uint256"
            },
            {
              "internalType": "uint256",
              "name": "amountCollected",
              "type": "uint256"
            },
            {
              "internalType": "address payable",
              "name": "creator",
              "type": "address"
            },
            {
              "internalType": "bool",
              "name": "isActive",
              "type": "bool"
            }
          ],
          "internalType": "struct Campaign.CampaignDetails[]",
          "name": "",
          "type": "tuple[]"
        }
      ],
      "stateMutability": "view",
      "type": "function"
    }
  ],
  "bytecode": "0x608060405234801561001057600080fd5b5061184a806100206000396000f3fe60806040526004361061004a5760003560e01c8063141961bc1461004f57806342a4fda8146100915780635598f8cc146100ad578063a6b03633146100ea578063ffa56a5714610115575b600080fd5b34801561005b57600080fd5b5061007660048036038101906100719190610b5b565b61013e565b60405161008896959493929190610c83565b60405180910390f35b6100ab60048036038101906100a69190610b5b565b6102c7565b005b3480156100b957600080fd5b506100d460048036038101906100cf9190610b5b565b6104d6565b6040516100e19190610df9565b60405180910390f35b3480156100f657600080fd5b506100ff610702565b60405161010c9190610f6d565b60405180910390f35b34801561012157600080fd5b5061013c600480360381019061013791906110c4565b61090a565b005b6000818154811061014e57600080fd5b90600052602060002090600502016000915090508060000180546101719061117e565b80601f016020809104026020016040519081016040528092919081815260200182805461019d9061117e565b80156101ea5780601f106101bf576101008083540402835291602001916101ea565b820191906000526020600020905b8154815290600101906020018083116101cd57829003601f168201915b5050505050908060010180546101ff9061117e565b80601f016020809104026020016040519081016040528092919081815260200182805461022b9061117e565b80156102785780601f1061024d57610100808354040283529160200191610278565b820191906000526020600020905b81548152906001019060200180831161025b57829003601f168201915b5050505050908060020154908060030154908060040160009054906101000a900473ffffffffffffffffffffffffffffffffffffffff16908060040160149054906101000a900460ff16905086565b600080549050811061030e576040517f08c379a0000000000000000000000000000000000000000000000000000000008152600401610305906111fb565b60405180910390fd5b60008082815481106103235761032261121b565b5b906000526020600020906005020190508060040160149054906101000a900460ff16610384576040517f08c379a000000000000000000000000000000000000000000000000000000000815260040161037b90611296565b60405180910390fd5b600034116103c7576040517f08c379a00000000000000000000000000000000000000000000000000000000081526004016103be90611328565b60405180910390fd5b8060020154816003015410610411576040517f08c379a000000000000000000000000000000000000000000000000000000000815260040161040890611394565b60405180910390fd5b3481600301600082825461042591906113e3565b925050819055508060040160009054906101000a900473ffffffffffffffffffffffffffffffffffffffff1673ffffffffffffffffffffffffffffffffffffffff166108fc349081150290604051600060405180830381858888f19350505050158015610496573d6000803e3d6000fd5b507f0b5b4c52969ff7329ecf7ee536409fda87812b15a8622bc6e8cdeab3aee14a268233346040516104ca93929190611438565b60405180910390a15050565b6104de610ac3565b6000805490508210610525576040517f08c379a000000000000000000000000000000000000000000000000000000000815260040161051c906111fb565b60405180910390fd5b600082815481106105395761053861121b565b5b90600052602060002090600502016040518060c00160405290816000820180546105629061117e565b80601f016020809104026020016040519081016040528092919081815260200182805461058e9061117e565b80156105db5780601f106105b0576101008083540402835291602001916105db565b820191906000526020600020905b8154815290600101906020018083116105be57829003601f168201915b505050505081526020016001820180546105f49061117e565b80601f01602080910402602001604051908101604052809291908181526020018280546106209061117e565b801561066d5780601f106106425761010080835404028352916020019161066d565b820191906000526020600020905b81548152906001019060200180831161065057829003601f168201915b5050505050815260200160028201548152602001600382015481526020016004820160009054906101000a900473ffffffffffffffffffffffffffffffffffffffff1673ffffffffffffffffffffffffffffffffffffffff1673ffffffffffffffffffffffffffffffffffffffff1681526020016004820160149054906101000a900460ff1615151515815250509050919050565b60606000805480602002602001604051908101604052809291908181526020016000905b8282101561090157838290600052602060002090600502016040518060c00160405290816000820180546107599061117e565b80601f01602080910402602001604051908101604052809291908181526020018280546107859061117e565b80156107d25780601f106107a7576101008083540402835291602001916107d2565b820191906000526020600020905b8154815290600101906020018083116107b557829003601f168201915b505050505081526020016001820180546107eb9061117e565b80601f01602080910402602001604051908101604052809291908181526020018280546108179061117e565b80156108645780601f1061083957610100808354040283529160200191610864565b820191906000526020600020905b81548152906001019060200180831161084757829003601f168201915b5050505050815260200160028201548152602001600382015481526020016004820160009054906101000a900473ffffffffffffffffffffffffffffffffffffffff1673ffffffffffffffffffffffffffffffffffffffff1673ffffffffffffffffffffffffffffffffffffffff1681526020016004820160149054906101000a900460ff16151515158152505081526020019060010190610726565b50505050905090565b6000811161094d576040517f08c379a0000000000000000000000000000000000000000000000000000000008152600401610944906114e1565b60405180910390fd5b60006040518060c00160405280858152602001848152602001838152602001600081526020013373ffffffffffffffffffffffffffffffffffffffff168152602001600115158152509050600081908060018154018082558091505060019003906000526020600020906005020160009091909190915060008201518160000190816109d991906116ad565b5060208201518160010190816109ef91906116ad565b50604082015181600201556060820151816003015560808201518160040160006101000a81548173ffffffffffffffffffffffffffffffffffffffff021916908373ffffffffffffffffffffffffffffffffffffffff16021790555060a08201518160040160146101000a81548160ff02191690831515021790555050507f5625a6c5db4545709e44f0b65b1d3e026dccf5419a55818c7f6be6d439006fbe6001600080549050610aa0919061177f565b85858533604051610ab59594939291906117b3565b60405180910390a150505050565b6040518060c0016040528060608152602001606081526020016000815260200160008152602001600073ffffffffffffffffffffffffffffffffffffffff1681526020016000151581525090565b6000604051905090565b600080fd5b600080fd5b6000819050919050565b610b3881610b25565b8114610b4357600080fd5b50565b600081359050610b5581610b2f565b92915050565b600060208284031215610b7157610b70610b1b565b5b6000610b7f84828501610b46565b91505092915050565b600081519050919050565b600082825260208201905092915050565b60005b83811015610bc2578082015181840152602081019050610ba7565b60008484015250505050565b6000601f19601f8301169050919050565b6000610bea82610b88565b610bf48185610b93565b9350610c04818560208601610ba4565b610c0d81610bce565b840191505092915050565b610c2181610b25565b82525050565b600073ffffffffffffffffffffffffffffffffffffffff82169050919050565b6000610c5282610c27565b9050919050565b610c6281610c47565b82525050565b60008115159050919050565b610c7d81610c68565b82525050565b600060c0820190508181036000830152610c9d8189610bdf565b90508181036020830152610cb18188610bdf565b9050610cc06040830187610c18565b610ccd6060830186610c18565b610cda6080830185610c59565b610ce760a0830184610c74565b979650505050505050565b600082825260208201905092915050565b6000610d0e82610b88565b610d188185610cf2565b9350610d28818560208601610ba4565b610d3181610bce565b840191505092915050565b610d4581610b25565b82525050565b610d5481610c47565b82525050565b610d6381610c68565b82525050565b600060c0830160008301518482036000860152610d868282610d03565b91505060208301518482036020860152610da08282610d03565b9150506040830151610db56040860182610d3c565b506060830151610dc86060860182610d3c565b506080830151610ddb6080860182610d4b565b5060a0830151610dee60a0860182610d5a565b508091505092915050565b60006020820190508181036000830152610e138184610d69565b905092915050565b600081519050919050565b600082825260208201905092915050565b6000819050602082019050919050565b600060c0830160008301518482036000860152610e648282610d03565b91505060208301518482036020860152610e7e8282610d03565b9150506040830151610e936040860182610d3c565b506060830151610ea66060860182610d3c565b506080830151610eb96080860182610d4b565b5060a0830151610ecc60a0860182610d5a565b508091505092915050565b6000610ee38383610e47565b905092915050565b6000602082019050919050565b6000610f0382610e1b565b610f0d8185610e26565b935083602082028501610f1f85610e37565b8060005b85811015610f5b5784840389528151610f3c8582610ed7565b9450610f4783610eeb565b925060208a01995050600181019050610f23565b50829750879550505050505092915050565b60006020820190508181036000830152610f878184610ef8565b905092915050565b600080fd5b600080fd5b7f4e487b7100000000000000000000000000000000000000000000000000000000600052604160045260246000fd5b610fd182610bce565b810181811067ffffffffffffffff82111715610ff057610fef610f99565b5b80604052505050565b6000611003610b11565b905061100f8282610fc8565b919050565b600067ffffffffffffffff82111561102f5761102e610f99565b5b61103882610bce565b9050602081019050919050565b82818337600083830152505050565b600061106761106284611014565b610ff9565b90508281526020810184848401111561108357611082610f94565b5b61108e848285611045565b509392505050565b600082601f8301126110ab576110aa610f8f565b5b81356110bb848260208601611054565b91505092915050565b6000806000606084860312156110dd576110dc610b1b565b5b600084013567ffffffffffffffff8111156110fb576110fa610b20565b5b61110786828701611096565b935050602084013567ffffffffffffffff81111561112857611127610b20565b5b61113486828701611096565b925050604061114586828701610b46565b9150509250925092565b7f4e487b7100000000000000000000000000000000000000000000000000000000600052602260045260246000fd5b6000600282049050600182168061119657607f821691505b6020821081036111a9576111a861114f565b5b50919050565b7f43616d706169676e20646f6573206e6f74206578697374000000000000000000600082015250565b60006111e5601783610b93565b91506111f0826111af565b602082019050919050565b60006020820190508181036000830152611214816111d8565b9050919050565b7f4e487b7100000000000000000000000000000000000000000000000000000000600052603260045260246000fd5b7f43616d706169676e206973206e6f742061637469766500000000000000000000600082015250565b6000611280601683610b93565b915061128b8261124a565b602082019050919050565b600060208201905081810360008301526112af81611273565b9050919050565b7f446f6e6174696f6e20616d6f756e742073686f756c642062652067726561746560008201527f72207468616e2030000000000000000000000000000000000000000000000000602082015250565b6000611312602883610b93565b915061131d826112b6565b604082019050919050565b6000602082019050818103600083015261134181611305565b9050919050565b7f43616d706169676e20616c72656164792066756c6c792066756e646564000000600082015250565b600061137e601d83610b93565b915061138982611348565b602082019050919050565b600060208201905081810360008301526113ad81611371565b9050919050565b7f4e487b7100000000000000000000000000000000000000000000000000000000600052601160045260246000fd5b60006113ee82610b25565b91506113f983610b25565b9250828201905080821115611411576114106113b4565b5b92915050565b600061142282610c27565b9050919050565b61143281611417565b82525050565b600060608201905061144d6000830186610c18565b61145a6020830185611429565b6114676040830184610c18565b949350505050565b7f416d6f756e742072657175697265642073686f756c642062652067726561746560008201527f72207468616e2030000000000000000000000000000000000000000000000000602082015250565b60006114cb602883610b93565b91506114d68261146f565b604082019050919050565b600060208201905081810360008301526114fa816114be565b9050919050565b60008190508160005260206000209050919050565b60006020601f8301049050919050565b600082821b905092915050565b6000600883026115637fffffffffffffffffffffffffffffffffffffffffffffffffffffffffffffffff82611526565b61156d8683611526565b95508019841693508086168417925050509392505050565b6000819050919050565b60006115aa6115a56115a084610b25565b611585565b610b25565b9050919050565b6000819050919050565b6115c48361158f565b6115d86115d0826115b1565b848454611533565b825550505050565b600090565b6115ed6115e0565b6115f88184846115bb565b505050565b5b8181101561161c576116116000826115e5565b6001810190506115fe565b5050565b601f8211156116615761163281611501565b61163b84611516565b8101602085101561164a578190505b61165e61165685611516565b8301826115fd565b50505b505050565b600082821c905092915050565b600061168460001984600802611666565b1980831691505092915050565b600061169d8383611673565b9150826002028217905092915050565b6116b682610b88565b67ffffffffffffffff8111156116cf576116ce610f99565b5b6116d9825461117e565b6116e4828285611620565b600060209050601f8311600181146117175760008415611705578287015190505b61170f8582611691565b865550611777565b601f19841661172586611501565b60005b8281101561174d57848901518255600182019150602085019450602081019050611728565b8683101561176a5784890151611766601f891682611673565b8355505b6001600288020188555050505b505050505050565b600061178a82610b25565b915061179583610b25565b92508282039050818111156117ad576117ac6113b4565b5b92915050565b600060a0820190506117c86000830188610c18565b81810360208301526117da8187610bdf565b905081810360408301526117ee8186610bdf565b90506117fd6060830185610c18565b61180a6080830184611429565b969550505050505056fea26469706673582212205d98bc8e04b041f3699f6e99d76db168a81626725e28f9aa8e67f426cbaaed7c64736f6c63430008180033",
  "linkReferences": {},
  "deployedLinkReferences": {}
}